:100000000C94E3000C940B010C940B010C940B0169
:100010000C940B010C940B010C940B010C940B0130
:100020000C940B010C940B010C9451030C94C3031E
:100030000C940B010C940B010C940B010C940B0110
:100040000C940B010C940B010C940B010C940B0100
:100050000C940B010C940B010C940B010C94BE0737
:100060000C940B010C9419060C94F3050C940B01E1
:100070000C940B010C940B010C940B010C940B01D0
:100080000C940B010C940B010C940B010C940B01C0
:100090000C940B010C940B010C940B010C940B01B0
:1000A0000C940B010C940B010C940B016306660677
:1000B000550659065F068706870687066A066E0696
:1000C000720678067C0687068206080B000202028A
:1000D00001000904000001020200000524001001D3
:1000E0000524010101042402060524060001070578
:1000F000810310004009040100020A000000070506
:1001000002024000000705830240000004030904C6
:1001100012010002EF020140412337800001010279
:10012000030141726475696E6F204C4C430041724B
:100130006475696E6F204D6963726F000000000086
:100140002300260029002C002F00000000020009D7
:100150000F0000030401000C00000000000000007C
:100160000000000000000000000000000025002842
:10017000002B002E00310000000000240027002A80
:10018000002D0030000404040404030405020202EC
:100190000204030202020206060606060604040220
:1001A0000202040404080201104080401020408034
:1001B00040800802040180402010020110801020BD
:1001C000404020001C1111241FBECFEFDAE0DEBF3B
:1001D000CDBF22E0A0E5B1E001C01D92AC3AB2076C
:1001E000E1F711E0A0E0B1E0E2E3FAE202C005903D
:1001F0000D92A035B107D9F710E0C3EED0E004C0EE
:100200002197FE010E94E413C23ED107C9F70E9464
:10021000F60B0C9417150C94000040915F0150915F
:10022000600120915D0130915E0142175307B4F4E3
:100230009091E8009570E1F39091E80092FD19C06B
:100240008093F10080915F019091600101968F731E
:100250009927892B19F48EEF8093E80080915F0134
:100260009091600101969093600180935F0181E01D
:10027000089580E00895DF92EF92FF920F931F930D
:10028000CF93DF93D82E8A017B01E40EF51EEB019C
:10029000CE15DF0571F0D7FE03C0FE01849101C0C9
:1002A00088810E940D0121968111F2CF8FEF9FEF7F
:1002B00001C0C801DF91CF911F910F91FF90EF9086
:1002C000DF900895615030F02091F100FC0120830F
:1002D0000196F8CF289A84E6809396010895CF92EC
:1002E000DF92EF92FF920F931F93CF93DF936C01F6
:1002F0007A018B01C0E0D0E0CE15DF0589F0D8018E
:100300006D918D01D601ED91FC910190F081E02D70
:10031000C6010995892B11F47E0102C02196ECCF0C
:10032000C701DF91CF911F910F91FF90EF90DF9068
:10033000CF900895FC01538D448D252F30E0842FFC
:1003400090E0821B930B541710F0CF9608950197FD
:100350000895FC01918D828D981761F0828DDF01E7
:10036000A80FB11D5D968C91928D9F5F9F73928FA8
:1003700090E008958FEF9FEF0895FC01918D828D9D
:10038000981731F0828DE80FF11D858D90E008956A
:100390008FEF9FEF0895FC01918D228D892F90E0C2
:1003A000805C9F4F821B91098F739927089588E97C
:1003B00091E00E94CB0121E0892B09F420E0822FFB
:1003C0000895FC01848DDF01A80FB11DA35ABF4F12
:1003D0002C91848D90E001968F739927848FA68944
:1003E000B7892C93A089B1898C9180648C93938D6B
:1003F000848D981306C00288F389E02D80818F7D5B
:1004000080830895EF92FF920F931F93CF93DF9312
:10041000EC0181E0888F9B8D8C8D981305C0E88955
:10042000F989808185FD24C0F62E0B8D10E00F5FC9
:100430001F4F0F731127E02E8C8DE8120CC00FB6E2
:1004400007FCFACFE889F989808185FFF5CFCE01D5
:100450000E94E101F1CF8B8DFE01E80FF11DE35AFF
:10046000FF4FF0820B8FEA89FB898081806207C091
:10047000EE89FF896083E889F989808180648083BF
:1004800081E090E0DF91CF911F910F91FF90EF906D
:100490000895CF93DF93EC01888D8823C9F0EA8912
:1004A000FB89808185FD05C0A889B9898C9186FD6D
:1004B0000FC00FB607FCF5CF808185FFF2CFA8896A
:1004C000B9898C9185FFEDCFCE010E94E101E7CF84
:1004D000DF91CF91089580E090E0892B29F00E9470
:1004E000D70181110C9400000895CF93DF931F92E0
:1004F000CDB7DEB76983DC01ED91FC910280F38119
:10050000E02D41E050E0BE016F5F7F4F09950F90F5
:10051000DF91CF91089583E08093E9008091F2000C
:10052000882319F08AE38093E8000895FC0184850C
:10053000958597FD0BC09FB7F89482E08093E90002
:100540008091F2009FBF90E0019608959FB7F894C4
:1005500082E08093E9008091F2009FBF90E00895CF
:10056000089580E090E008953FB7F8948091590194
:1005700090915A01A0915B01B0915C0126B5A89BB6
:1005800005C02F3F19F00196A11DB11D3FBFBA2F25
:10059000A92F982F8827820F911DA11DB11DBC0185
:1005A000CD0142E0660F771F881F991F4A95D1F74A
:1005B00008950F931F93CF93DF931F92CDB7DEB7AC
:1005C00082E0898342E450E06AEC70E080E80E94B7
:1005D0003B010E94A50BDC0112960D911C91139713
:1005E0000115110569F0D801ED91FC910280F381AC
:1005F000E02DBE016F5F7F4FC801099597FF07C0CF
:1006000089810F90DF91CF911F910F910895F8018B
:1006100000851185E5CF0E94940B90E008950F931B
:100620001F93CF93DF931F92CDB7DEB78C01FC01F0
:100630008485958597FF0EC0CE0101960E946A0BB6
:10064000019719F4298130E002C02FEF3FEFF80144
:1006500035872487F801848595850F90DF91CF91A8
:100660001F910F910895CF93DF931F92CDB7DEB7FF
:10067000FC018485958597FD05C02FEF3FEF3587F9
:1006800024870BC0CE0101960E946A0B019719F4D2
:10069000898190E002C08FEF9FEF0F90DF91CF91A3
:1006A00008951F920F920FB60F9211248F939F936C
:1006B0008091E1009091E100937F9093E10083FFAE
:1006C0000FC01092E90091E09093EB001092EC00C3
:1006D00092E39093ED001092970198E09093F000D0
:1006E00082FF20C093E09093E9009091F20099235B
:1006F00019F09AE39093E80090916101992339F001
:1007000090916101915090936101992389F19091A9
:100710009601992339F0909196019150909396010A
:10072000992341F184FF10C08091E2008E7E8160A8
:100730008093E2008091E1008F7E8093E1008091C0
:1007400063018E7E806111C080FF16C08091E2003F
:100750008E7E80618093E2008091E1008E7E8093A6
:10076000E100809163018E7E81608093630104C00B
:100770005D98CDCF2898D6CF9F918F910F900FBEC7
:100780000F901F9018951F920F920FB60F92112481
:10079000CF92DF92EF92FF920F931F932F933F938D
:1007A0004F935F936F937F938F939F93AF93BF9379
:1007B000EF93FF93CF93DF93CDB7DEB76C97DEBF98
:1007C000CDBF1092E9008091E80083FFEDC168E0A1
:1007D000CE0145960E94620182EF8093E8008D89E8
:1007E00087FF05C09091E80090FFFCCF03C09EEF0B
:1007F0009093E800982F907609F0C6C09E892F89C3
:10080000188D91110CC0803829F480916401809377
:10081000F10002C01092F1001092F10048C1422F85
:1008200050E0512B913051F4811141C141305105BB
:1008300009F03DC1809164018D7F0BC0933061F45C
:10084000811135C14130510509F031C180916401F8
:100850008260809364012BC1953041F48091E8005F
:1008600080FFFCCF20682093E30021C1963009F07F
:100870005FC0EB8CFC8C1092E9001092600110922A
:100880005F01123091F510925E0110925D010E949D
:10089000D90299E0BE016F5F7F4FDB01E92F1D9206
:1008A000EA95E9F799831A8391E09E8390EA988705
:1008B0009AEF998720915F0130916001275F3F4F48
:1008C0003C832B838D831092E9001092600110927B
:1008D0005F01F0925E01E0925D0149E050E080E04E
:1008E0000E943B010E94D902E2C0F0925E01E092B8
:1008F0005D010E94A50BDC011296ED90FC90139710
:10090000E114F10409F4C0C0D701ED91FC91048019
:10091000F581E02DBE016B5E7F4FC7010995009701
:1009200019F00CF0C4C0C7C0F701E084F184E8CF2F
:10093000973009F4C0C0983021F481E08093F10031
:10094000B6C0993009F0B3C0837009F0B4C0E7E1D4
:10095000F1E081E021E036E39081992361F080931A
:10096000E9002093EB0091919093EC003093ED001F
:100970008F5F873089F78EE78093EA001092EA0054
:100980008F898093970193C08B8D9C8D1092E90085
:100990001092600110925F0190935E0180935D015F
:1009A000898D811156C08E899D89913A59F4813281
:1009B00009F081C047E050E064E071E080E00E940F
:1009C0003B0175C0913209F076C0833289F4888D7D
:1009D00090E0982F88272F89822BA0E0B0E08093A9
:1009E000000190930101A0930201B09303015FC045
:1009F000803269F48091E80082FFFCCF67E084E0F8
:100A000091E00E9462018BEF8093E80006C0823281
:100A100009F04DC08F8980930B018091620188237A
:100A200019F0EEEFFAE002C0E0E0F8E08091040196
:100A300090910501A0910601B0910701803B94407F
:100A4000A105B10509F07BC080910B0180FF93C027
:100A500076C00E94A50BDC0112960D911C91139794
:100A60000115110541F1D801ED91FC910190F08142
:100A7000E02DBE016B5E7F4FC8010995811117C043
:100A8000F80100851185ECCF113009F44EC0133008
:100A900091F48F89882309F445C0823081F440E8BD
:100AA0006DE08EE291E00E94B90B882321F08EEF79
:100AB0008093E80079C081E28093EB0075C08130BB
:100AC00029F440E86BE082E291E0EDCF833099F7C2
:100AD0000E94A50BDC011296ED90FC9013978E01FD
:100AE0000F5F1F4F6801E114F10479F0D701ED9118
:100AF000FC910680F781E02DB801C7010995080F28
:100B0000111DF701E084F184EECFD8011C92F601AB
:100B100001900020E9F73197BF016C197D0940E091
:100B2000C601C1CF6CE071E002C060E171E0611507
:100B3000710509F2FB01449150E080E840CF0FB607
:100B4000F894A8958091600088618093600010926D
:100B500060000FBEA895EE3F2AE0F20739F08091C1
:100B6000FE0A9091FF0A91838083A1CF1092FF0A21
:100B70001092FE0A9CCFEE3F8AE0F80731F08081A8
:100B800091819093FF0A8093FE0A87E797E791830C
:100B900080839BE088E10FB6F894A895809360006D
:100BA0000FBE9093600083CF6C960FB6F894DEBFB3
:100BB0000FBECDBFDF91CF91FF91EF91BF91AF916C
:100BC0009F918F917F916F915F914F913F912F9165
:100BD0001F910F91FF90EF90DF90CF900F900FBE7D
:100BE0000F901F9018951F920F920FB60F9211241D
:100BF0002F933F934F935F936F937F938F939F9325
:100C0000AF93BF93EF93FF9388E991E00E94E101D6
:100C1000FF91EF91BF91AF919F918F917F916F91D4
:100C20005F914F913F912F910F900FBE0F901F90AA
:100C300018951F920F920FB60F9211242F938F9336
:100C40009F93EF93FF93E091A801F091A901808118
:100C5000E091AE01F091AF0182FD12C090818091D0
:100C6000B1018F5F8F732091B201821751F0E09133
:100C7000B101F0E0E856FE4F958F8093B10101C0BD
:100C80008081FF91EF919F918F912F910F900FBED7
:100C90000F901F90189590E0FC013197EF30F1050F
:100CA000B0F5EA5AFF4F0C94E413809180008F77DF
:100CB00003C0809180008F7D809380000895809193
:100CC0008000877FF9CF84B58F7702C084B58F7D90
:100CD00084BD0895809190008F7707C08091900027
:100CE0008F7D03C080919000877F8093900008954E
:100CF0008091C0008F7703C08091C0008F7D80936A
:100D0000C00008958091C200877F8093C20008953B
:100D10001F93CF93DF93282F30E0F901E65BFE4F5E
:100D20008491F901EC55FE4FD491F901EB57FE4F38
:100D3000C491CC23C9F0162F81110E944B06EC2FD1
:100D4000F0E0EE0FFF1FE759FE4FA591B4918FB76A
:100D5000F894111105C09C91ED2FE095E92302C094
:100D6000EC91ED2BEC938FBFDF91CF911F91089504
:100D70008230910538F0880F991F880F991F0597C9
:100D80000197F1F708958F929F92AF92BF92CF9201
:100D9000DF92EF92FF926B017C010E94B4024B0143
:100DA0005C01C114D104E104F104F1F00E94B40229
:100DB000DC01CB0188199909AA09BB09883E934037
:100DC000A105B10570F321E0C21AD108E108F108CC
:100DD00088EE880E83E0981EA11CB11CC114D104BA
:100DE000E104F10419F7DDCFFF90EF90DF90CF9091
:100DF000BF90AF909F908F9008958F929F92AF92E7
:100E0000BF92CF92DF92EF92FF920F931F93CF93F7
:100E1000DF935C016B017A0180910B01882309F457
:100E20005BC080919701882309F456C080916301CB
:100E300080FF05C08091E00082608093E000E701C0
:100E400010E00AEF83E0882E9AE3992E2097D9F1DB
:100E50000E94940B81110AC0015009F43DC061E069
:100E600070E080E090E00E94C306F0CF282F30E0D1
:100E7000C217D3070CF48C2F4FB7F8948092E90077
:100E80009091E80095FF1DC0282F30E0C21BD30BC6
:100E9000F601982F915020F081918093F100FACFC4
:100EA000C20ED31E112319F09092E80009C0809160
:100EB000E80085FD06C09092E80011E0209709F057
:100EC00010E04FBFC3CF1111C3CF5D9A84E680936A
:100ED00061011E141F0444F081E090E0F50193834A
:100EE000828380E090E001C0C701DF91CF911F9124
:100EF0000F91FF90EF90DF90CF90BF90AF909F90B9
:100F00008F9008952FB7F894609155017091560114
:100F100080915701909158012FBF08950F931F930F
:100F2000CF93DF93EC010E948207688779878A87D5
:100F30009B87E881F9810484F585E02DCE01099530
:100F400097FF17C00E948207088519852A853B856F
:100F5000DC01CB01801B910BA20BB30B0C811D811B
:100F60002E813F8180179107A207B30710F38FEFFF
:100F70009FEFDF91CF911F910F9108951F920F92D4
:100F80000FB60F9211242F933F938F939F93AF939C
:100F9000BF938091550190915601A0915701B09156
:100FA00058013091540123E0230F2D3720F401968E
:100FB000A11DB11D05C026E8230F0296A11DB11D7C
:100FC000209354018093550190935601A0935701AB
:100FD000B09358018091590190915A01A0915B0101
:100FE000B0915C010196A11DB11D809359019093B0
:100FF0005A01A0935B01B0935C01BF91AF919F91A7
:101000008F913F912F910F900FBE0F901F901895C9
:101010004F925F926F927F928F929F92AF92BF9208
:10102000CF92DF92EF92FF92CF93DF93CDB7DEB7EF
:1010300028970FB6F894DEBF0FBECDBF2B013C0141
:1010400069017A01CA01B9019F772AE037ED43E2CD
:101050005CE30E94651187FD4DC020E030E040E078
:101060005EE3C301B2010E94CB1120E030E048E40E
:1010700053E40E94CB119F770E9482139B01AC0125
:1010800083E0220F331F441F551F8A95D1F7298310
:101090003A834B835C8320E030E040E752E4C701B1
:1010A000B6010E94101320E030E048E453E40E94AF
:1010B000CB119B01AC0160E070E080E89FE30E94EF
:1010C000101320E030E040E05FE30E94CB1120E00D
:1010D00034E244E759E40E94CB119F770E948913C0
:1010E0006B017C0193E0F694E794D794C7949A95AA
:1010F000D1F70AC0C12CD12C76018FEF9FEFDC0114
:1011000089839A83AB83BC83812C912C54012981E0
:101110003A814B815C81281539054A055B050CF441
:101120004AC088E991E00E94CB011816190624F400
:1011300080916B0181112CC020E030E0A901C30136
:10114000B2010E946511882311F320E030E0A9016B
:10115000C301B2010E94B813181614F461E001C073
:1011600060E084E00E94880661E085E00E948806D5
:10117000C6010E94B80660E085E00E948806C601AC
:101180000E94B8069FEF891A990AA90AB90ABFCF27
:1011900088E991E00E94880A6D837E838F83988717
:1011A00088E991E00E94880A4D815E814E315105A7
:1011B00019F610926B0128960FB6F894DEBF0FBE99
:1011C000CDBFDF91CF91FF90EF90DF90CF90BF9098
:1011D000AF909F908F907F906F905F904F90089509
:1011E000CF93DF9360E08BE00E9488068FEF8EBD87
:1011F00000000DB407FEFDCFDEB58FEF8EBD000001
:101200000DB407FEFDCFCEB561E08BE00E948806ED
:101210006C2F70E07D2B7F73072E000C880B990BD1
:101220000E946C1122EE3FEF43EB5CE30E94CB1176
:10123000DF91CF9108958F929F92AF92BF92CF92FC
:10124000DF92EF92FF92CF93DF930E94F0086B0141
:101250007C018090500190905101A0905201B0907B
:10126000530120E030E0A901C501B4010E94B81388
:10127000C0916901D0916A0187FD20C020E030E073
:1012800048E452E4C501B4010E94651187FF16C00D
:1012900020E030E044EB53E4C701B6010E94651141
:1012A000181664F020E030E040EA53E4C701B601CC
:1012B0000E94B813181614F4219728C020E030E0DB
:1012C00044EB53E4C501B4010E946511181614F1F2
:1012D00020E030E040EA53E4C501B4010E94B813B5
:1012E0001816C4F420E030E0A901C701B6010E943D
:1012F000B81387FD0FC020E030E048E452E4C70196
:10130000B6010E94651187FF05C02196D0936A013E
:10131000C0936901C0925001D0925101E0925201F4
:10132000F09253012091650130916601409167016F
:1013300050916801C701B6010E94A3126B017C01A4
:101340004091690150916A0128E631E0429FC00155
:10135000439F900D529F900D1124BC01990F880B53
:10136000990B0E946C119B01AC01C701B6010E9450
:10137000A41220E030E040EA50E40E94101320E084
:1013800030E04AEE52E40E94A412DF91CF91FF9028
:10139000EF90DF90CF90BF90AF909F908F90089587
:1013A0001F93CF93DF93EC01162FCE010E948E077F
:1013B00097FD16C08D32910599F09C01205331099B
:1013C0002A30310568F0112319F08E32910541F071
:1013D000E881F9810284F385E02DCE010995E5CFFE
:1013E000DF91CF911F9108958F929F92AF92BF92FC
:1013F000CF92DF92EF92FF920F931F93CF93DF93E1
:10140000EC0161E00E94D009FC0197FD6DC0812CC8
:10141000912C80E8A82E8FE3B82EC12CD12C760118
:1014200010E000E0E130F10569F1ED32F10539F14C
:10143000EE32F10531F1CF01C0970A9718F5AAE015
:10144000B0E0A70196010E9489126F01FF0FEE081C
:10145000FF08C60ED71EE81EF91E80E3C81AD10881
:10146000E108F108112371F02DEC3CEC4CEC5DE34C
:10147000C501B4010E94CB114B015C0103C001E026
:1014800001C011E0E881F9810284F385E02DCE01ED
:101490000995CE010E948E07FC01C0970A9710F2B1
:1014A000EE32F10519F4111123C0BCCFE130F10582
:1014B00009F4B8CF002341F0F094E094D094C094A4
:1014C000C11CD11CE11CF11C112349F0C701B6015C
:1014D0000E946C11A50194010E94CB110CC0C701A0
:1014E000B6010E946C1107C060E070E0CB0103C040
:1014F0000111E2CFEBCFDF91CF911F910F91FF90C0
:10150000EF90DF90CF90BF90AF909F908F90089515
:10151000AF92BF92CF92DF92EF92FF921F93CF9341
:10152000DF9300D000D0CDB7DEB75C0160E00E9451
:10153000D009FC0197FD48C020E030E0A90110E08F
:10154000E130F105E9F0ED32F105C9F0CF01C097C6
:101550000A97B0F4AAE0B0E00E9489126F01FF0F71
:10156000EE08FF08DC01CB018C0D9D1DAE1DBF1DDB
:101570009C01AD01205331094109510901C011E01D
:10158000D501ED91FC910284F385E02DC5012983FD
:101590003A834B835C830995C5010E948E07FC0149
:1015A000C09729813A814B815C810A9748F2E130EA
:1015B000F10531F2112361F066277727CB01621B19
:1015C000730B840B950B06C060E070E0CB0102C08A
:1015D000CA01B9010F900F900F900F90DF91CF913A
:1015E0001F91FF90EF90DF90CF90BF90AF90089544
:1015F00090E0FC01EC55FE4F2491FC01EB57FE4FAF
:101600008491882399F090E0880F991FFC01E95894
:10161000FE4FA591B491FC01E759FE4F859194913D
:101620008FB7F894EC91E22BEC938FBF089500975D
:1016300069F0FC0101900020E9F73197AF01481BE8
:10164000590BBC0188E991E00C946F0180E090E0B7
:1016500008958F929F92AF92BF920F931F93CF9353
:10166000DF93CDB7DEB7A1970FB6F894DEBF0FBEFC
:10167000CDBF19A2423008F44AE08E010F5D1F4F22
:10168000842E912CA12CB12CA50194010E94C2138F
:10169000E62FB901CA0101501109EA3014F4E05DE6
:1016A00001C0E95CD801EC93232B242B252B61F797
:1016B000C8010E94170BA1960FB6F894DEBF0FBEAB
:1016C000CDBFDF91CF911F910F91BF90AF909F90B1
:1016D0008F900895FC0180919701811103C08FEFD5
:1016E0009FEF08959FB7F89482E08093E9002091DE
:1016F000F20030E01216130614F421E030E0211558
:10170000310559F0289A84E6809396018091F10082
:1017100080838091F200882319F09FBFC90108954A
:101720008BE68093E800F9CF2FB7F89483E080939D
:10173000E9009091E800892F807295FF04C0909194
:10174000F20080E4891B2FBF08958091A0028111CF
:101750000DC082E080939C0284E080939D021092F1
:101760009F0210929E0281E08093A0028CE992E099
:101770000895CF92DF92EF92FF920F931F93CF9332
:10178000DF931F92CDB7DEB7182F062FE42E862FDA
:10179000880F8E5F99830E940D0183E00E940D01E6
:1017A000F12EC12E9981D92E8C2D8F19801798F486
:1017B000F601E7FE02C0849101C080810E940D0104
:1017C000182F80E00E940D018123FFEFCF1ADF0A5E
:1017D0008111EACF01C081E00F90DF91CF911F917D
:1017E0000F91FF90EF90DF90CF900895CF93DF930C
:1017F00000D000D0CDB7DEB7789484B5826084BDC8
:1018000084B5816084BD85B5826085BD85B5816004
:1018100085BD80916E00816080936E001092810082
:10182000809181008260809381008091810081603D
:1018300080938100809180008160809380008091FE
:1018400091008260809391008091910081608093EB
:101850009100809190008160809390008091C10000
:1018600084608093C1008091C10082608093C10038
:101870008091C10081608093C1008091C30081602C
:101880008093C3008091C00082608093C0008091EB
:10189000C20081608093C20080917A00846080934E
:1018A0007A0080917A00826080937A0080917A0039
:1018B000816080937A0080917A00806880937A00BA
:1018C0001092970110926401109263018091D700E9
:1018D00081608093D70080EA8093D80089B58061C9
:1018E00089BD89B5826089BD09B400FEFDCF61E084
:1018F00070E080E090E00E94C3068091D8008F7C69
:1019000080618093D8008091E000807F8093E00028
:101910008091E1008E7E8093E1008DE08093E20073
:10192000559A209A5D982898EEEFFFE7859194915B
:101930008B3F9C4D19F481E0809362018DE00E9401
:10194000F80A8BE00E94F80A85E00E94F80A84E019
:101950000E94F80A86E00E94F80A61E08DE00E9489
:101960008806E091A801F091A90182E08083E091CE
:10197000A401F091A5011082E091A601F091A701C8
:1019800080E180831092B001E091AC01F091AD0153
:1019900086E08083E091AA01F091AB0180818061B3
:1019A0008083E091AA01F091AB01808188608083FF
:1019B000E091AA01F091AB01808180688083E09181
:1019C000AA01F091AB0180818F7D80838AE090E055
:1019D000A0E0B0E080939C0190939D01A0939E01B4
:1019E000B0939F011FB7F89480916C01811124C0BE
:1019F000E6E9F1E08491E5EBF1E09491E82FF0E085
:101A0000EE0FFF1FE958FE4FA591B491EC91E92329
:101A100021F461E081E10E94880681E10E94F80AD8
:101A20008CB580618CBD8CB580648CBD8FE00E94CC
:101A3000F80A80E10E94F80A80916C018F5F809320
:101A40006C011FBF68EE73E080E090E00E94C30667
:101A500084E58CBD81E08DBD60E08DE00E9488064C
:101A600060E086E00E94880622242A94322C812C91
:101A7000912CF0ECAF2EFFE3BF2E88E991E00E949D
:101A8000CB01892B09F4EAC188E991E00E94880A18
:101A900070939501609394016330710509F488C0D7
:101AA00044F461307105E1F16230710509F44BC015
:101AB000D5C16530710509F4A6C06233710509F01E
:101AC000CDC188E991E00E94880A81E080936B0192
:101AD00020E030E040EA53E460E070E583EC97E416
:101AE0000E94080810926A01109269010E94F00891
:101AF000609365017093660180936701909368011C
:101B000080E090E0A4E3B2E480930C0190930D0197
:101B1000A0930E01B0930F0191E0909393019EC1A9
:101B200088E991E00E94F4096B017C0188E991E069
:101B30000E94F409C0920C01D0920D01E0920E01B6
:101B4000F0920F018BC188E991E00E94F4096B01CA
:101B50007C0188E991E00E94F409C0928F01D09243
:101B60009001E0929101F092920120E030E0A90111
:101B7000C701B6010E94B81318163CF4A1E0B0E00A
:101B8000B0938E01A0938D0169C120E030E0A901DE
:101B9000C701B6010E94651187FF05C030928E0112
:101BA00020928D015BC110928E0110928D0156C161
:101BB00088E991E00E94880AE0E5F1E08491EAEA90
:101BC000F1E01491EBE8F1E004910023A1F0811120
:101BD0000E944B06E02FF0E0EE0FFF1FE45CFE4F8B
:101BE000A591B4918C91182391E080E009F490E0E4
:101BF000692F782F02C060E070E0F1E06F2786E087
:101C00000E9488062BC185E392E00E94880A7093A7
:101C100091026093900280918602909187020E94C7
:101C20007F148091900290919102880F991F880FE4
:101C3000991F0E94EA1390938702809386028091F5
:101C40008802909189020E947F1480919002909165
:101C50009102880F991F880F991F0E94EA13909391
:101C600089028093880280918A0290918B020E945F
:101C70007F148091900290919102880F991F880F94
:101C8000991F0E94EA1390938B0280938A0280919D
:101C90008C0290918D020E947F148091900290910D
:101CA0009102880F991F880F991F0E94EA13909341
:101CB0008D0280938C0280918E0290918F020E94FF
:101CC0007F1480919002909191020196880F991F44
:101CD000880F991F0E94EA1390938F0280938E02BF
:101CE000C12CD12C00E010E08091900290919102E3
:101CF00008171907B4F4E0908C02F0908D02EC0CF8
:101D0000FD1C85E392E00E94F409D7016D937D9359
:101D10008D939C9313970F5F1F4FB4E0CB0ED11C94
:101D2000E3CFC12CD12C00E010E080919002909183
:101D3000910208171907ACF4E0908A02F0908B0228
:101D4000EC0CFD1C85E392E00E94F409F70160832E
:101D50007183828393830F5F1F4FF4E0CF0ED11CFA
:101D6000E4CFC12CD12C00E010E080919002909142
:101D7000910208171907B4F4E0908802F0908902E4
:101D8000EC0CFD1C85E392E00E94F409D7016D93F1
:101D90007D938D939C9313970F5F1F4FB4E0CB0EF1
:101DA000D11CE3CFC12CD12C00E010E08091900237
:101DB0009091910208171907ACF4E0908602F09018
:101DC0008702EC0CFD1C85E392E00E94F409F70108
:101DD00060837183828393830F5F1F4FF4E0CF0E84
:101DE000D11CE4CF84E0C82ED12C01E010E080911A
:101DF000900290919102E0918E02F0918F028017F3
:101E000091079CF07F01EC0CFD1C85E392E00E94A1
:101E1000F409D7016D937D938D939C9313970F5F76
:101E20001F4FB4E0CB0ED11CE2CF10821182128280
:101E3000138285E392E00E94F4090E948207609376
:101E40009202709393028093940290939502109261
:101E5000970210929602E1E0E0938502809193014F
:101E6000882309F405C1809194019091950102970E
:101E700009F4C9C080927D0190927E01A0927F01F9
:101E8000B09280010E941B099B01AC016093790113
:101E900070937A0180937B0190937C0160910C0197
:101EA00070910D0180910E0190910F010E94A3127B
:101EB0006093750170937601809377019093780118
:101EC00020E030E040EC5FE30E94CB116B017C012D
:101ED0006093710170937201809373019093740108
:101EE00020E030E0A9010E9465118823A1F120E0E3
:101EF00030E040E752E4C701B6010E94101320E031
:101F000030E048E453E40E94CB1120E030E040E0B0
:101F100052E40E94CB119B01AC0160E070E080E8CC
:101F20009FE30E94101320E030E040E05FE30E9456
:101F3000CB119F7720E034E244E759E40E94CB11B3
:101F40000E94891360936D0170936E0180936F01FD
:101F50009093700108C010926D0110926E01109262
:101F60006F01109270010E94820760939802709333
:101F7000990280939A0290939B020E94820700919B
:101F800098021091990220919A0230919B02DC01F3
:101F9000CB01801B910BA20BB30B0A97A105B105D6
:101FA00008F066C0C0906D01D0906E01E0906F01A6
:101FB000F0907001C114D104E104F104F1F220E0C9
:101FC00030E0A901609175017091760180917701EF
:101FD000909178010E94B81387FD02C061E001C0B2
:101FE00060E084E00E94880661E085E00E94880647
:101FF000C6010E94B80660E085E00E948806C6011E
:102000000E94B806BACF80918F0190919001A09163
:102010009101B0919201BC01CD019F7720E030E0A9
:1020200040EA50E40E94CB1120E030E040E052E46E
:102030000E94CB1120E030E040EC50E40E941013ED
:102040009B01AC0160918D0170918E01072E000CF7
:10205000880B990B29833A834B835C830E946C1114
:1020600029813A814B815C810E9408080E941B09EA
:102070008091850181110DC00E94820760938101CA
:10208000709382018093830190938401F1E0F09337
:1020900085010E94820700918101109182012091A7
:1020A000830130918401DC01CB01801B910BA20BD9
:1020B000B30B85369105A105B10508F4BAC00E949D
:1020C0001B096B017C019B01AC010E94BD1388239D
:1020D00019F081E491E01AC026013701E89477F8FD
:1020E0002FEF3FEF4FE75FE7C301B2010E94BD133F
:1020F00081110FC02FEF3FEF4FE75FE7C301B20140
:102100000E94651118162CF485E491E00E94170BCB
:1021100082C02FEF3FEF4FE75FE4C701B6010E9497
:10212000B81318161CF489E491E0F0CF2FEF3FEFBD
:102130004FE75FECC701B6010E94651187FDF3CF41
:1021400020E030E0A901C701B6010E94651187FFB8
:102150000FC0E0919801F09199010190F081E02D7C
:102160006DE288E991E00995F7FAF094F7F8F094B8
:102170002AE037ED43EA5BE3C701B6010E94A412EF
:102180002B013C010E9489136B017C010E946A11A2
:102190009B01AC01C301B2010E94A3122B013C01BF
:1021A0004AE0C701B6010E94290BE0919801F09125
:1021B00099010190F081E02D6EE288E991E00995A6
:1021C00020E030E040E251E4C301B2010E94CB11B3
:1021D0006B017C010E9489132B01612C712C4AE058
:1021E000C301B2010E94290BC301B2010E946A110E
:1021F0009B01AC01C701B6010E94A31220E030E0B0
:1022000040E251E40E94CB110E94891380E090E0EB
:102210004AE00E94290B8DE491E00E94170B0E9476
:102220008207609381017093820180938301909370
:1022300084010E946B0221CCE8E9F1E01382128252
:1022400088EE93E0A0E0B0E084839583A683B78313
:1022500021E231E0318320832DEC30E03587248783
:102260002CEC30E03787268728EC30E0318B208B50
:1022700029EC30E0338B228B2AEC30E0358B248B39
:102280002EEC30E0378B268B118E128E138E148E2F
:10229000E5E3F2E01382128284839583A683B783F9
:1022A00083E391E0918380838FEF9FEF958784870D
:1022B0000E948207609398027093990280939A0219
:1022C00090939B021092850208950E94A71108F432
:1022D00081E00895E89409C097FB3EF490958095BD
:1022E000709561957F4F8F4F9F4F9923A9F0F92FDC
:1022F00096E9BB279395F695879577956795B7955A
:10230000F111F8CFFAF4BB0F11F460FF1BC06F5F3F
:102310007F4F8F4F9F4F16C0882311F096E911C051
:10232000772321F09EE8872F762F05C0662371F072
:1023300096E8862F70E060E02AF09A95660F771F86
:10234000881FDAF7880F9695879597F90895990F62
:102350000008550FAA0BE0E8FEEF16161706E8076F
:10236000F907C0F012161306E407F50798F0621B90
:10237000730B840B950B39F40A2661F0232B242B65
:10238000252B21F408950A2609F4A140A6958FEF84
:10239000811D811D08950E94DE110C944F120E9430
:1023A000411238F00E94481220F0952311F00C944D
:1023B00038120C943E1211240C9483120E94601265
:1023C00070F3959FC1F3950F50E0551F629FF00188
:1023D000729FBB27F00DB11D639FAA27F00DB11DA1
:1023E000AA1F649F6627B00DA11D661F829F22272A
:1023F000B00DA11D621F739FB00DA11D621F839FB1
:10240000A00D611D221F749F3327A00D611D231F86
:10241000849F600D211D822F762F6A2F11249F57D4
:1024200050409AF0F1F088234AF0EE0FFF1FBB1FD7
:10243000661F771F881F91505040A9F79E3F510596
:1024400080F00C9438120C9483125F3FE4F3983EB2
:10245000D4F3869577956795B795F795E7959F5F40
:10246000C1F7FE2B880F911D9695879597F90895D2
:1024700097F99F6780E870E060E008959FEF80EC37
:10248000089500240A9416161706180609060895DA
:1024900000240A9412161306140605060895092E40
:1024A0000394000C11F4882352F0BB0F40F4BF2BAF
:1024B00011F460FF04C06F5F7F4F8F4F9F4F0895EF
:1024C00057FD9058440F551F59F05F3F71F04795E5
:1024D000880F97FB991F61F09F3F79F087950895CA
:1024E000121613061406551FF2CF4695F1DF08C0E9
:1024F000161617061806991FF1CF86957105610506
:1025000008940895E894BB2766277727CB0197F9AD
:1025100008950E949412A59F900DB49F900DA49FC2
:10252000800D911D11240895A29FB001B39FC00199
:10253000A39F700D811D1124911DB29F700D811DEF
:102540001124911D08955058BB27AA270E94BB1241
:102550000C944F120E94411238F00E94481220F051
:1025600039F49F3F19F426F40C943E120EF4E095D2
:10257000E7FB0C943812E92F0E94601258F3BA1747
:10258000620773078407950720F079F4A6F50C9489
:1025900082120EF4E0950B2EBA2FA02D0B01B9017B
:1025A00090010C01CA01A0011124FF27591B99F0C9
:1025B000593F50F4503E68F11A16F040A22F232FD5
:1025C000342F4427585FF3CF469537952795A79525
:1025D000F0405395C9F77EF41F16BA0B620B730BCC
:1025E000840BBAF09150A1F0FF0FBB1F661F771F3D
:1025F000881FC2F70EC0BA0F621F731F841F48F4F2
:10260000879577956795B795F7959E3F08F0B0CF7A
:102610009395880F08F09927EE0F97958795089561
:102620000E9424130C944F120E94481258F00E94EA
:10263000411240F029F45F3F29F00C9438125111F7
:102640000C9483120C943E120E94601268F399233A
:10265000B1F3552391F3951B550BBB27AA2762179E
:102660007307840738F09F5F5F4F220F331F441FAB
:10267000AA1FA9F335D00E2E3AF0E0E832D09150DF
:102680005040E695001CCAF72BD0FE2F29D0660FCC
:10269000771F881FBB1F261737074807AB07B0E80F
:1026A00009F0BB0B802DBF01FF2793585F4F3AF015
:1026B0009E3F510578F00C9438120C9483125F3FC2
:1026C000E4F3983ED4F3869577956795B795F7959B
:1026D0009F5FC9F7880F911D9695879597F9089583
:1026E000E1E0660F771F881FBB1F6217730784071F
:1026F000BA0720F0621B730B840BBA0BEE1F88F72E
:10270000E09508950E9489136894B1110C94831286
:1027100008950E94681288F09F5798F0B92F992762
:10272000B751B0F0E1F0660F771F881F991F1AF0BC
:10273000BA95C9F714C0B13091F00E948212B1E08D
:1027400008950C948212672F782F8827B85F39F08C
:10275000B93FCCF3869577956795B395D9F73EF455
:1027600090958095709561957F4F8F4F9F4F0895FD
:102770000E94A71108F48FEF08950E94A711880BFB
:10278000990B0895A1E21A2EAA1BBB1BFD010DC0D7
:10279000AA1FBB1FEE1FFF1FA217B307E407F50711
:1027A00020F0A21BB30BE40BF50B661F771F881FED
:1027B000991F1A9469F760957095809590959B0183
:1027C000AC01BD01CF010895EE0FFF1F0590F491FC
:1027D000E02D0994CF93DF938230910510F482E0CD
:1027E00090E0E091AA02F091AB0220E030E0C0E07E
:1027F000D0E0309711F14081518148175907C0F05E
:102800004817590761F482819381209719F09B83BF
:102810008A832BC09093AB028093AA0226C0211515
:10282000310519F04217530718F49A01BE01DF0170
:10283000EF010280F381E02DDCCF2115310509F194
:10284000281B390B2430310590F412968D919C9100
:1028500013976115710521F0FB019383828304C0F6
:102860009093AB028093AA02FD01329644C0FD0111
:10287000E20FF31F81939193225031092D933C93E2
:102880003AC02091A8023091A902232B41F4209153
:102890001201309113013093A9022093A8022091D4
:1028A0001001309111012115310541F42DB73EB7CA
:1028B0004091140150911501241B350BE091A802A1
:1028C000F091A902E217F307A0F42E1B3F0B281783
:1028D000390778F0AC014E5F5F4F2417350748F099
:1028E0004E0F5F1F5093A9024093A80281939193CA
:1028F00002C0E0E0F0E0CF01DF91CF9108950F93A7
:102900001F93CF93DF93009709F48CC0FC0132979B
:10291000138212820091AA021091AB0201151105D7
:1029200081F420813181820F931F2091A802309180
:10293000A9022817390779F5F093A902E093A802B4
:1029400071C0D80140E050E0AE17BF0750F41296B6
:102950002D913C911397AD012115310509F1D90154
:10296000F3CF9D01DA013383228360817181860F69
:10297000971F8217930769F4EC0128813981260F8C
:10298000371F2E5F3F4F318320838A819B81938342
:102990008283452B29F4F093AB02E093AA0242C054
:1029A0001396FC93EE931297ED01499159919E0174
:1029B000240F351FE217F30771F480819181840F92
:1029C000951F029611969C938E9382819381139604
:1029D0009C938E931297E0E0F0E0D80112968D91CF
:1029E0009C911397009719F0F8018C01F6CF8D9107
:1029F0009C9198012E5F3F4F820F931F2091A80258
:102A00003091A9022817390769F4309729F41092F8
:102A1000AB021092AA0202C0138212821093A90282
:102A20000093A802DF91CF911F910F910895F89420
:022A3000FFCFD6
:102A3200FFFFFFFF00E10000000000000000A041D6
:102A42000000AC02800000C1808100000000000094
:102A52000002026F019A014902CB01A901BD0100E6
:102A62000000007502FD060B038B02960233030F72
:102A7200036E616E00696E66006F7666000D0A0075
:2070000055C000006EC000006CC000006AC0000068C0000066C0000064C0000062C0000043
:2070200060C000005EC00000F2C400005AC0000058C0000056C0000054C0000052C00000EE
:2070400050C0000078C000004CC000004AC0000048C0000046C0000044C0000042C00000BE
:2070600040C000003EC000003CC000003AC0000038C0000036C0000034C0000032C0000048
:2070800030C000002EC000002CC000002AC0000028C0000026C0000024C0000022C00000A8
:2070A00020C000001EC000001CC0000011241FBECFEFDAE0DEBFCDBF11E0A0E0B1E0E2E3BC
:2070C000FFE702C005900D92A83AB107D9F711E0A8EAB1E001C01D92AE3BB107E1F78FD30B
:2070E00026C78ECFF89410926F0010928100109285001092840081E085BF15BE47985D98ED
:2071000028980C94000008952091B2013091B3012F5F3F4F3093B3012093B201932F37FFA8
:2071200003C08EEF831B982F990F921710F447980895479A08951F920F920FB60F9211246E
:207140002F938F939F93EF93FF9310928500109284008091A8019091A901009741F00197D3
:207160009093A9018093A801892B09F45D988091AA019091AB01009741F001979093AB0128
:207180008093AA01892B09F42898E0E0F0E0859194918F5F9F4F49F08091AC019091AD0153
:2071A00001969093AD018093AC01FF91EF919F918F912F910F900FBE0F901F90189584E0BC
:2071C0008093E9000DC08091E8008B778093E80003C08EB3882351F08091E80082FFF9CFBE
:2071E0008091E80085FFEFCF8091F1000895982F83E08093E9008091E80085FD0DC0809136
:20720000E8008E778093E80003C08EB3882369F08091E80080FFF9CF9093F1005D9A84E6C9
:2072200090E09093A9018093A80108954F925F926F927F928F929F92AF92BF92CF92DF921E
:20724000EF92FF920F931F93CF93DF9384E08093E9008091E80082FF57C2289A84E690E065
:207260009093AB018093AA01AADF182F853481F48CE49DE19093AD018093AC0107B600FC4B
:20728000FDCFF999FECF81E180935700E89503C0843519F494DF8DE00DC28C34E1F38035F9
:2072A000D1F3843721F484E4A2DF80E003C2813611F489E5FFC18134B1F481DF182F7FDFE3
:2072C00090E0880F991FAA2797FDA095BA2F312F330F20E0442737FD4095542F822B932B68
:2072E000A42BB52BB8C1803711F483E5E3C1833549F4C0E0D1E089917ADF21E0C730D20714
:20730000D1F7D9C1863521F481E371DF80E3D2C1833731F487E86BDF85E969DF8EE1CAC149
:207320008536B9F4E0E0F0E093E085E090935700E89507B600FCFDCF80935700E89507B65D
:2073400000FCFDCFE058FF4FA0E7E030FA0771F7A2CF823739F4E1E0F0E089E08093570024
:207360008491A8C1863439F4E0E0F0E089E08093570084919FC18E3439F4E3E0F0E089E0E5
:2073800080935700849196C1813539F4E2E0F0E089E08093570084918DC1823631F489E521
:2073A00026DF80E024DF80E885C1823419F0873609F0E5C01092AD011092AC0100DF082FE8
:2073C000FEDEF82EFCDE682E8554823008F071C1902F80E0CF2DD0E0C82BD92B10926F00B3
:2073E000173609F04BC081E180935700E895DD24CC24C3943FC0E090AE01F090AF010091CC
:20740000B0011091B101B6E46B16D9F4ED2DF0E0EE29FF29E4918E2FEADEDD2081F082E08D
:2074200090E0A0E0B0E0E80EF91E0A1F1B1FE092AE01F092AF010093B0011093B101DC2470
:2074400018C0D801C701B695A7959795879559D5CEDE82E090E0A0E0B0E0E80EF91E0A1FF2
:207460001B1FE092AE01F092AF010093B0011093B1012197209709F0BECF7DC08090AE01F5
:207480009090AF01A090B001B090B10196E4691609F05DC083E0F40180935700E89507B63E
:2074A00000FCFDCF54C0F6E46F1661F5772031F1E090AE01F090AF010091B0011091B1019E
:2074C0007EDED82ECC24852D90E08C299D29F7010C0140925700E895112482E090E0A0E08B
:2074E000B0E0E80EF91E0A1F1B1FE092AE01F092AF010093B0011093B10102C060DE582E1A
:20750000742423C0E090AE01F090AF010091B0011091B10116950795F794E79450DE682FFA
:20752000C701F7D48091AE019091AF01A091B001B091B1010296A11DB11D8093AE01909349
:20754000AF01A093B001B093B101219704C05524772444244394209709F0A5CF96E46916B6
:2075600041F485E0F40180935700E89507B600FCFDCF8DE03CDE82E080936F009CC0833492
:2075800071F40091AE011091AF0119DE90E021E0F8010C0120935700E89511247CCE8336C8
:2075A00019F5E090AE01F090AF010091B0011091B10105DEF701E16090E021E00C0120938C
:2075C0005700E895112482E090E0A0E0B0E0E80EF91E0A1F1B1FE092AE01F092AF0100936A
:2075E000B0011093B10157CE8D3661F4E091AE01F091AF0185E080935700E89507B600FCF2
:20760000FDCF49CE823551F4E091AE01F091AF0105911491812FEBDD802F4CC0843421F5FE
:20762000E090AE01F090AF010091B0011091B10116950795F794E794C2DD682FC70169D4DE
:207640008091AE019091AF01A091B001B091B1010296A11DB11D8093AE019093AF01A093D8
:20766000B001B093B10117CE843609F5E090AE01F090AF010091B0011091B101D801C70142
:20768000B695A795979587953CD4B1DD82E090E0A0E0B0E0E80EF91E0A1F1B1FE092AE010A
:2076A000F092AF010093B0011093B10104C08B3111F08FE39CDD83E08093E9009091E8002B
:2076C0008091E8008E778093E80095FF04C010C08EB38823C9F08091E80080FFF9CF809193
:2076E000E8008E778093E80003C08EB3882361F08091E80080FFF9CF84E08093E9008091F1
:20770000E8008B778093E800DF91CF911F910F91FF90EF90DF90CF90BF90AF909F908F90AC
:207720007F906F905F904F9008959091B601892F8F77813249F58091B7018032A1F081328A
:2077400019F5913A09F58091E800877F8093E8008DE091E067E070E00BD28091E8008B770B
:207760008093E8000895913279F48091E800877F8093E8008DE091E067E070E05DD2809192
:20778000E8008E778093E800089582E061EC42E0B5D083E061E842E1B1D084E060E842E1EF
:2077A000ADC084B7877F84BF88E10FB6F89480936000109260000FBE20E880E090E00FB63F
:2077C000F89420936100809361000FBE81E085BF92E095BF3F9A209A559AE1E6F0E02083A1
:2077E000108247985D982898109289008AEF8093880090936F0083E080938100F0C040911A
:20780000000850910108109201081092000894B714BE88E10FB6F8948093600010926000D5
:207820000FBE292F30E0F901E270F07091FD18C090FF05C0859194918F5F9F4F81F423FFFF
:207840000FC08091090190910A014817590741F0E0E0F0E0859194918F5F9F4F09F042DC64
:20786000A0DF78941092AD011092AC010CC0DEDC36D38091AC019091AD0181549F4110F00D
:207880001092140141DC80911401882381F78091E00081608093E00025DC80E090E0089598
:2078A000FA01923049F0933061F09130F9F485E191E022E130E01EC087E291E02EE330E04D
:2078C00019C0882329F485E691E024E030E012C0813029F489E691E022E230E00BC0823006
:2078E00029F48DE891E028E130E004C080E090E020E030E091838083C90108958093E9004E
:207900008091EB0081608093EB001092ED006093EC004093ED008091EE00881F8827881F62
:2079200008958091B60188238CF403C08EB38823B1F08091E80082FFF9CF8091E8008B772A
:207940008093E80008958EB3882349F08091E80080FFF9CF8091E8008E778093E800089594
:20796000EF92FF920F931F9345D04CD008ED10E0F80180818F77808380818068808380819B
:207980008F7D808319BC1EBA1092B40180EEE82EF12CF70180818B7F8083F8018081816052
:2079A000808380E060E042E0A9DFE1EEF0E080818E7F8083E2EEF0E0808181608083808144
:2079C00088608083F70180818E7F8083F8018081806180831F910F91FF90EF900895E7ED06
:2079E000F0E08081816080838AE482BF81E08093B501B6CFE8EDF0E080818E7F808310921C
:207A0000E20008951092DA001092E10008951F920F920FB60F9211242F933F934F935F93F6
:207A20006F937F938F939F93AF93BF93EF93FF938091DA0080FF1BC08091D80080FF17C0B2
:207A40008091DA008E7F8093DA008091D90080FF0BC080E189BD82E189BD09B400FEFDCF36
:207A600081E08EBB3BD203C019BC1EBA37D28091E10080FF17C08091E20080FF13C0809138
:207A8000E2008E7F8093E2008091E20080618093E2008091D80080628093D80019BC85E049
:207AA0008EBB1CD28091E10084FF2CC08091E20084FF28C080E189BD82E189BD09B400FEC5
:207AC000FDCF8091D8008F7D8093D8008091E1008F7E8093E1008091E2008F7E8093E20012
:207AE0008091E20081608093E2008091B401882331F48091E30087FD02C081E001C084E067
:207B00008EBBECD18091E10083FF21C08091E20083FF1DC08091E100877F8093E10082E06A
:207B20008EBB1092B4018091E1008E7F8093E1008091E2008E7F8093E2008091E2008061E9
:207B40008093E20080E060E042E0D8DEC7D1FF91EF91BF91AF919F918F917F916F915F9130
:207B60004F913F912F910F900FBE0F901F9018959C014091BC015091BD014617570718F49D
:207B8000F90190E044C06115710511F0AB01F8CF8091E8008E778093E80040E050E0F0CF0F
:207BA0008EB3882309F444C0853009F443C08091E80083FF02C081E008958091E80082FD70
:207BC00031C08091E80080FF22C08091F3009091F200782F60E0292F30E0262B372B07C07A
:207BE00081918093F100415050402F5F3F4F4115510519F02830310598F390E02830310566
:207C000009F491E08091E8008E778093E8004115510531F6992321F605C08EB3882341F075
:207C2000853041F08091E80082FFF7CF80E0089582E0089583E008959C016115710529F47C
:207C40008091E8008B778093E800F90126C08EB3882391F1853091F18091E80083FF02C06C
:207C600081E008958091E80082FFF1CF06C08091F10081936150704059F02091F300809191
:207C8000F200322F20E090E0822B932B892B79F78091E8008B778093E80061157105B9F601
:207CA00005C08EB3882341F0853041F08091E80080FFF7CF80E0089582E0089583E00895C2
:207CC0000F931F93DF93CF9300D0CDB7DEB7E6EBF1E08091F100819381E0EE3BF807C9F792
:207CE00024DD8091E80083FFE4C08091B6019091B701953009F46DC0963040F4913081F1A7
:207D0000913070F0933009F0D4C02AC0983009F4A3C0993009F4B2C0963009F0CAC07CC023
:207D2000803809F4C6C0823809F0C3C08091BA0187708093E9008091EB001092E9002091DB
:207D4000E800277F2093E80090E025E0969587952A95E1F781708093F1001092F10087C0D8
:207D6000882319F0823009F0A4C08F71823009F0A0C08091B801882331F52091BA01277097
:207D800009F497C02093E9008091EB0080FF1BC0933021F48091EB00806213C08091EB0018
:207DA00080618093EB0081E090E002C0880F991F2A95E2F78093EA001092EA008091EB00E5
:207DC00088608093EB001092E9008091E800877F51C0882309F06DC01091B8011F770FB79B
:207DE000F8948091E800877F8093E8009ADD8091E80080FFFCCF8091E3008078812B809398
:207E0000E30080688093E300112311F482E001C083E08EBB0FBF4DC08058823008F049C033
:207E20008091B8019091B9016091BA01AE014F5F5F4F36DDBC01009709F43BC08091E8008E
:207E4000877F8093E80089819A8192DE8091E8008B778093E8002DC0803859F58091E800AA
:207E6000877F8093E8008091B4018093F1008091E8008E778093E80054DD1BC08823C9F4CA
:207E80009091B8019230A8F48091E800877F8093E8009093B40145DD8091B401882331F420
:207EA0008091E30087FD02C081E001C084E08EBB6CDC8091E80083FF0AC08091EB0080624E
:207EC0008093EB008091E800877F8093E8000F900F90CF91DF911F910F91089508951F9360
:207EE0008EB3882361F01091E9001092E9008091E80083FF01C0E4DE17701093E9001F916F
:207F00000895F999FECF92BD81BDF89A992780B50895262FF999FECF1FBA92BD81BD20BDBD
:207F20000FB6F894FA9AF99A0FBE01960895F894FFCF4341544552494E4100777700080031
:207F40000000000000080112011001020000084123370001000201000109023E00020100FE
:207F600080320904000001020201000524001001042402040524060001070582030800FF0C
:207F800009040100020A000000070504021000010705830210000104030904220341007216
:207FA000006400750069006E006F0020004D006900630072006F0020002000200000001810
:1A7FC00003410072006400750069006E006F0020004C004C004300000000D7
:00000001FF
